:060000000A128A11EC2F28
:100CB600F0007008831203139300941F632E642EB2
:100CC600652E94130800F0007008031D6B2E6C2E21
:100CD6006D2E712EFF308312031388000800F0007A
:100CE6007008031D772E782E792E812E7008513EBE
:100CF60084008313000983120313880008008316F7
:100D06000313880183120313941114119410141001
:100D160094161412831603131413941387120716CA
:100D2600871108007E088A007F0882000A128A114D
:100D360095260A128A118000840A04087D06031982
:100D46000034FF0A0319FE0A992EF200F101721C03
:100D5600AD2EAE2EB22E7008FF007F08F1070310ED
:100D6600F00D0310F20C7208031DBA2EBB2EAA2E2C
:100D760071080800F600F701F70A7708F300F40196
:100D860076080A128A11D4260A128A110130FF0047
:100D96007F08F70709307702031CD22ED32EC02E08
:100DA6000800F50075080A128A1172260A128A11BD
:100DB60073080A128A115B260A128A1174080A122B
:100DC6008A115B260A128A1175080A128A1166268A
:100DD6000A128A110800FD010A128A115A270A12FC
:100DE6008A1101300A128A11BD260A128A117D085B
:100DF600F60001300A128A119C270A128A11013064
:100E0600FF007F08FD070A307D02031C0B2F0C2F05
:100E16000D2FFD01153083120313DC004B30DB0070
:100E2600BD30DA00DA0B152FDB0B152FDC0B152F77
:100E36001C2FFA2E0A128A1100283E3451344934E6
:100E460045343E34003442347F3440340034423436
:100E560061345134493446342134413445344B34B9
:100E660031341834143412347F3410342734453472
:100E76004534453439343C344A34493449343034C1
:100E8600033471340934053403343634493449346F
:100E96004934363406344934493429341E3401344D
:100EA60002340434083410342034403480340A12B6
:100EB6008A1182260A128A11F601F60A0930F3000F
:100EC600F40176080A128A11D4260A128A110A3007
:100ED600F3000830F40076080A128A11D4260A12A2
:100EE6008A110B30F3000730F40076080A128A11D3
:100EF600D4260A128A110C30F300F401F40A76089B
:100F06000A128A11D4260A128A110F30F300F4014C
:100F160076080A128A11D4260A128A110130FF00B5
:100F26007F08F60702307602031C9A2F9B2F612F4B
:100F36000800FB000530FA000A307602031CA42FD5
:100F4600A52FA62FEB2FF301F30AF4017B080A1253
:100F56008A11D4260A128A110230FC00CE2F7C0890
:100F6600F3000530F00076080A128A11A8260A1244
:100F76008A111E3E7C07F700770884008313000859
:100F8600F4007B080A128A11D4260A128A1101304B
:100F9600FF007F08FC077A08013EF70000300318BF
:100FA6000130F8007808803AF90080307902031D94
:100FB600DE2F7C0877020318E12FE22FB22F7C0880
:100FC600F300F4017B080A128A11D4260A128A1148
:100FD600080083135A30FD000730FE002030FF0062
:100FE600203084000A128A1199260A128A11DD011C
:0A0FF600DE0183010A128A11EE2EBB
:08400000FF3FFF3FFF3FFF3FC0
:02400E00FA3F77
:00000001FF
