:060000000A128A11ED2F27
:100CBA00F0007008831203139300941F652E662EAA
:100CCA00672E94130800F0007008031D6D2E6E2E17
:100CDA006F2E732EFF308312031388000800F00072
:100CEA007008031D792E7A2E7B2E832E7008513EB2
:100CFA0084008313000983120313880008008316F3
:100D0A0003138801831203139411141194101414F9
:100D1A0094161412831603131413871207168711D5
:100D2A0008007E088A007F0882000A128A11962625
:100D3A000A128A118000840A04087D060319003405
:100D4A00FF0A0319FE0A9A2EF200F101721CAE2E56
:100D5A00AF2EB32E7008FF007F08F1070310F00DC5
:100D6A000310F20C7208031DBB2EBC2EAB2E7108A9
:100D7A000800F600F701F70A7708F300F40176088D
:100D8A000A128A11D5260A128A110130FF007F0839
:100D9A00F70709307702031CD32ED42EC12E080080
:100DAA00F50075080A128A1174260A128A11730844
:100DBA000A128A115D260A128A1174080A128A1105
:100DCA005D260A128A1175080A128A1168260A1201
:100DDA008A110800FD010A128A115B270A128A1178
:100DEA0001300A128A11BE260A128A117D08F600FB
:100DFA0001300A128A119D270A128A110130FF0056
:100E0A007F08FD070A307D02031C0C2F0D2F0E2FC1
:100E1A00FD01153083120313DC004B30DB00BD30BB
:100E2A00DA00DA0B162FDB0B162FDC0B162F1D2F11
:100E3A00FB2E0A128A1100283E34513449344534B3
:100E4A003E34003442347F34403400344234613416
:100E5A005134493446342134413445344B343134E5
:100E6A001834143412347F3410342734453445345A
:100E7A00453439343C344A344934493430340334FF
:100E8A007134093405340334363449344934493425
:100E9A00363406344934493429341E340134023490
:100EAA000434083410342034403480340A128A114D
:100EBA0084260A128A11F601F60A0930F300F401AF
:100ECA0076080A128A11D5260A128A110A30F30004
:100EDA000830F40076080A128A11D5260A128A11F5
:100EEA000B30F3000730F40076080A128A11D5266F
:100EFA000A128A110C30F300F401F40A76080A1275
:100F0A008A11D5260A128A110F30F300F4017608E5
:100F1A000A128A11D5260A128A110130FF007F08A7
:100F2A00F60702307602031C9B2F9C2F622F0800C3
:100F3A00FB000530FA000A307602031CA52FA62F03
:100F4A00A72FEC2FF301F30AF4017B080A128A1186
:100F5A00D5260A128A110230FC00CF2F7C08F30032
:100F6A000530F00076080A128A11A9260A128A1197
:100F7A001E3E7C07F7007708840083130008F400FC
:100F8A007B080A128A11D5260A128A110130FF003B
:100F9A007F08FC077A08013EF70000300318013089
:100FAA00F8007808803AF90080307902031DDF2FB3
:100FBA007C0877020318E22FE32FB32F7C08F30093
:100FCA00F4017B080A128A11D5260A128A1108002E
:100FDA0083135A30FD000730FE002130FF00203015
:100FEA0084000A128A119A260A128A11DD018301E3
:060FFA000A128A11EF2E1D
:08400000FF3FFF3FFF3FFF3FC0
:02400E00FA3F77
:00000001FF
